{
  "_format": "hh-sol-artifact-1",
  "contractName": "Nftfi",
  "sourceName": "contracts/nft-fi.sol",
  "abi": [
    {
      "inputs": [],
      "stateMutability": "nonpayable",
      "type": "constructor"
    },
    {
      "inputs": [
        {
          "internalType": "uint256",
          "name": "countIndex",
          "type": "uint256"
        }
      ],
      "name": "accept",
      "outputs": [],
      "stateMutability": "payable",
      "type": "function"
    },
    {
      "inputs": [
        {
          "internalType": "address",
          "name": "_nftContractAddress",
          "type": "address"
        },
        {
          "internalType": "uint256",
          "name": "_tokenId",
          "type": "uint256"
        }
      ],
      "name": "collateralize",
      "outputs": [],
      "stateMutability": "payable",
      "type": "function"
    },
    {
      "inputs": [],
      "name": "getCollateralizedNFTs",
      "outputs": [
        {
          "components": [
            {
              "internalType": "uint256",
              "name": "countIndex",
              "type": "uint256"
            },
            {
              "internalType": "address",
              "name": "collateralizer",
              "type": "address"
            },
            {
              "internalType": "address",
              "name": "nftContractAddress",
              "type": "address"
            },
            {
              "internalType": "uint256",
              "name": "tokenId",
              "type": "uint256"
            },
            {
              "internalType": "uint256",
              "name": "timestamp",
              "type": "uint256"
            },
            {
              "internalType": "uint256",
              "name": "auctionDuration",
              "type": "uint256"
            },
            {
              "internalType": "uint256",
              "name": "loanStartTime",
              "type": "uint256"
            },
            {
              "internalType": "uint256",
              "name": "loanDuration",
              "type": "uint256"
            },
            {
              "internalType": "address",
              "name": "invester",
              "type": "address"
            },
            {
              "internalType": "bool",
              "name": "isBidding",
              "type": "bool"
            },
            {
              "internalType": "uint256",
              "name": "biggestBidPrice",
              "type": "uint256"
            },
            {
              "internalType": "bool",
              "name": "isCollateralizing",
              "type": "bool"
            }
          ],
          "internalType": "struct Nftfi.CollateralizedNFTInfo[]",
          "name": "",
          "type": "tuple[]"
        }
      ],
      "stateMutability": "view",
      "type": "function"
    },
    {
      "inputs": [
        {
          "internalType": "uint256",
          "name": "countIndex",
          "type": "uint256"
        }
      ],
      "name": "liquidate",
      "outputs": [],
      "stateMutability": "payable",
      "type": "function"
    },
    {
      "inputs": [
        {
          "internalType": "uint256",
          "name": "countIndex",
          "type": "uint256"
        },
        {
          "internalType": "uint256",
          "name": "price",
          "type": "uint256"
        }
      ],
      "name": "makeBid",
      "outputs": [],
      "stateMutability": "payable",
      "type": "function"
    },
    {
      "inputs": [
        {
          "internalType": "uint256",
          "name": "countIndex",
          "type": "uint256"
        }
      ],
      "name": "payback",
      "outputs": [],
      "stateMutability": "payable",
      "type": "function"
    },
    {
      "inputs": [
        {
          "internalType": "uint256",
          "name": "countIndex",
          "type": "uint256"
        }
      ],
      "name": "withdraw",
      "outputs": [],
      "stateMutability": "payable",
      "type": "function"
    }
  ],
  "bytecode": "0x60806040526005600255600560035534801561001a57600080fd5b5073842bdfd7da2d603b176f0e41b58a6f2d785afbca6000806101000a81548173ffffffffffffffffffffffffffffffffffffffff021916908373ffffffffffffffffffffffffffffffffffffffff160217905550732d74278af15427f2b8216ad29c947e44b86d3934600160006101000a81548173ffffffffffffffffffffffffffffffffffffffff021916908373ffffffffffffffffffffffffffffffffffffffff160217905550611944806100d36000396000f3fe6080604052600436106100705760003560e01c8063415f12401161004e578063415f1240146100c957806347b3d185146100e5578063a846c2fd14610110578063adfcdc111461012c57610070565b806301057af81461007557806319b05f49146100915780632e1a7d4d146100ad575b600080fd5b61008f600480360381019061008a9190611250565b610148565b005b6100ab60048036038101906100a69190611290565b61049e565b005b6100c760048036038101906100c29190611290565b6106eb565b005b6100e360048036038101906100de9190611290565b610966565b005b3480156100f157600080fd5b506100fa610b00565b604051610107919061149c565b60405180910390f35b61012a60048036038101906101259190611290565b610cde565b005b610146600480360381019061014191906114be565b610eb1565b005b60004290506000600480549050905060006040518061018001604052808381526020013373ffffffffffffffffffffffffffffffffffffffff1681526020018673ffffffffffffffffffffffffffffffffffffffff16815260200185815260200184815260200162093a8081526020016000815260200162093a808152602001600073ffffffffffffffffffffffffffffffffffffffff1681526020016000151581526020016064815260200160011515815250905060048190806001815401808255809150506001900390600052602060002090600b02016000909190919091506000820151816000015560208201518160010160006101000a81548173ffffffffffffffffffffffffffffffffffffffff021916908373ffffffffffffffffffffffffffffffffffffffff16021790555060408201518160020160006101000a81548173ffffffffffffffffffffffffffffffffffffffff021916908373ffffffffffffffffffffffffffffffffffffffff160217905550606082015181600301556080820151816004015560a0820151816005015560c0820151816006015560e082015181600701556101008201518160080160006101000a81548173ffffffffffffffffffffffffffffffffffffffff021916908373ffffffffffffffffffffffffffffffffffffffff1602179055506101208201518160080160146101000a81548160ff021916908315150217905550610140820151816009015561016082015181600a0160006101000a81548160ff02191690831515021790555050506103ca6040518060400160405280600981526020017f63616c6c6572202573000000000000000000000000000000000000000000000081525033611043565b60008054906101000a900473ffffffffffffffffffffffffffffffffffffffff1673ffffffffffffffffffffffffffffffffffffffff166323b872dd3330876040518463ffffffff1660e01b81526004016104279392919061151c565b600060405180830381600087803b15801561044157600080fd5b505af1158015610455573d6000803e3d6000fd5b505050506104976040518060400160405280600e81526020017f636f6c6c61746572616c697a65210000000000000000000000000000000000008152506110df565b5050505050565b3373ffffffffffffffffffffffffffffffffffffffff16600482815481106104c9576104c8611553565b5b90600052602060002090600b020160010160009054906101000a900473ffffffffffffffffffffffffffffffffffffffff1673ffffffffffffffffffffffffffffffffffffffff1614610551576040517f08c379a0000000000000000000000000000000000000000000000000000000008152600401610548906115df565b60405180910390fd5b6004818154811061056557610564611553565b5b90600052602060002090600b020160080160149054906101000a900460ff166105c3576040517f08c379a00000000000000000000000000000000000000000000000000000000081526004016105ba9061164b565b60405180910390fd5b42600482815481106105d8576105d7611553565b5b90600052602060002090600b020160060181905550600160009054906101000a900473ffffffffffffffffffffffffffffffffffffffff1673ffffffffffffffffffffffffffffffffffffffff166323b872dd30600484815481106106405761063f611553565b5b90600052602060002090600b020160010160009054906101000a900473ffffffffffffffffffffffffffffffffffffffff166004858154811061068657610685611553565b5b90600052602060002090600b0201600901546040518463ffffffff1660e01b81526004016106b69392919061151c565b600060405180830381600087803b1580156106d057600080fd5b505af11580156106e4573d6000803e3d6000fd5b5050505050565b3373ffffffffffffffffffffffffffffffffffffffff166004828154811061071657610715611553565b5b90600052602060002090600b020160010160009054906101000a900473ffffffffffffffffffffffffffffffffffffffff1673ffffffffffffffffffffffffffffffffffffffff161461079e576040517f08c379a0000000000000000000000000000000000000000000000000000000008152600401610795906115df565b60405180910390fd5b600481815481106107b2576107b1611553565b5b90600052602060002090600b020160080160149054906101000a900460ff1615610811576040517f08c379a0000000000000000000000000000000000000000000000000000000008152600401610808906116b7565b60405180910390fd5b4261086f6004838154811061082957610828611553565b5b90600052602060002090600b0201600501546004848154811061084f5761084e611553565b5b90600052602060002090600b02016004015461117890919063ffffffff16565b106108af576040517f08c379a00000000000000000000000000000000000000000000000000000000081526004016108a690611723565b60405180910390fd5b60008054906101000a900473ffffffffffffffffffffffffffffffffffffffff1673ffffffffffffffffffffffffffffffffffffffff166323b872dd30336004858154811061090157610900611553565b5b90600052602060002090600b0201600301546040518463ffffffff1660e01b81526004016109319392919061151c565b600060405180830381600087803b15801561094b57600080fd5b505af115801561095f573d6000803e3d6000fd5b5050505050565b6109c36004828154811061097d5761097c611553565b5b90600052602060002090600b020160070154600483815481106109a3576109a2611553565b5b90600052602060002090600b02016006015461117890919063ffffffff16565b4210610a04576040517f08c379a00000000000000000000000000000000000000000000000000000000081526004016109fb9061178f565b60405180910390fd5b60008054906101000a900473ffffffffffffffffffffffffffffffffffffffff1673ffffffffffffffffffffffffffffffffffffffff166323b872dd3060048481548110610a5557610a54611553565b5b90600052602060002090600b020160080160009054906101000a900473ffffffffffffffffffffffffffffffffffffffff1660048581548110610a9b57610a9a611553565b5b90600052602060002090600b0201600301546040518463ffffffff1660e01b8152600401610acb9392919061151c565b600060405180830381600087803b158015610ae557600080fd5b505af1158015610af9573d6000803e3d6000fd5b5050505050565b60606004805480602002602001604051908101604052809291908181526020016000905b82821015610cd557838290600052602060002090600b020160405180610180016040529081600082015481526020016001820160009054906101000a900473ffffffffffffffffffffffffffffffffffffffff1673ffffffffffffffffffffffffffffffffffffffff1673ffffffffffffffffffffffffffffffffffffffff1681526020016002820160009054906101000a900473ffffffffffffffffffffffffffffffffffffffff1673ffffffffffffffffffffffffffffffffffffffff1673ffffffffffffffffffffffffffffffffffffffff16815260200160038201548152602001600482015481526020016005820154815260200160068201548152602001600782015481526020016008820160009054906101000a900473ffffffffffffffffffffffffffffffffffffffff1673ffffffffffffffffffffffffffffffffffffffff1673ffffffffffffffffffffffffffffffffffffffff1681526020016008820160149054906101000a900460ff1615151515815260200160098201548152602001600a820160009054906101000a900460ff16151515158152505081526020019060010190610b24565b50505050905090565b3373ffffffffffffffffffffffffffffffffffffffff1660048281548110610d0957610d08611553565b5b90600052602060002090600b020160010160009054906101000a900473ffffffffffffffffffffffffffffffffffffffff1673ffffffffffffffffffffffffffffffffffffffff1614610d91576040517f08c379a0000000000000000000000000000000000000000000000000000000008152600401610d88906115df565b60405180910390fd5b610dee60048281548110610da857610da7611553565b5b90600052602060002090600b02016007015460048381548110610dce57610dcd611553565b5b90600052602060002090600b02016006015461117890919063ffffffff16565b421115610dfa57600080fd5b60008054906101000a900473ffffffffffffffffffffffffffffffffffffffff1673ffffffffffffffffffffffffffffffffffffffff166323b872dd303360048581548110610e4c57610e4b611553565b5b90600052602060002090600b0201600301546040518463ffffffff1660e01b8152600401610e7c9392919061151c565b600060405180830381600087803b158015610e9657600080fd5b505af1158015610eaa573d6000803e3d6000fd5b5050505050565b8060048381548110610ec657610ec5611553565b5b90600052602060002090600b02016009015410610ee257600080fd5b3360048381548110610ef757610ef6611553565b5b90600052602060002090600b020160080160006101000a81548173ffffffffffffffffffffffffffffffffffffffff021916908373ffffffffffffffffffffffffffffffffffffffff1602179055508060048381548110610f5b57610f5a611553565b5b90600052602060002090600b020160090181905550600160048381548110610f8657610f85611553565b5b90600052602060002090600b020160080160146101000a81548160ff021916908315150217905550600160009054906101000a900473ffffffffffffffffffffffffffffffffffffffff1673ffffffffffffffffffffffffffffffffffffffff166323b872dd3330846040518463ffffffff1660e01b815260040161100d9392919061151c565b600060405180830381600087803b15801561102757600080fd5b505af115801561103b573d6000803e3d6000fd5b505050505050565b6110db8282604051602401611059929190611837565b6040516020818303038152906040527f319af333000000000000000000000000000000000000000000000000000000007bffffffffffffffffffffffffffffffffffffffffffffffffffffffff19166020820180517bffffffffffffffffffffffffffffffffffffffffffffffffffffffff838183161783525050505061118e565b5050565b611175816040516024016110f39190611867565b6040516020818303038152906040527f41304fac000000000000000000000000000000000000000000000000000000007bffffffffffffffffffffffffffffffffffffffffffffffffffffffff19166020820180517bffffffffffffffffffffffffffffffffffffffffffffffffffffffff838183161783525050505061118e565b50565b6000818361118691906118b8565b905092915050565b60008151905060006a636f6e736f6c652e6c6f679050602083016000808483855afa5050505050565b600080fd5b600073ffffffffffffffffffffffffffffffffffffffff82169050919050565b60006111e7826111bc565b9050919050565b6111f7816111dc565b811461120257600080fd5b50565b600081359050611214816111ee565b92915050565b6000819050919050565b61122d8161121a565b811461123857600080fd5b50565b60008135905061124a81611224565b92915050565b60008060408385031215611267576112666111b7565b5b600061127585828601611205565b92505060206112868582860161123b565b9150509250929050565b6000602082840312156112a6576112a56111b7565b5b60006112b48482850161123b565b91505092915050565b600081519050919050565b600082825260208201905092915050565b6000819050602082019050919050565b6112f28161121a565b82525050565b611301816111dc565b82525050565b60008115159050919050565b61131c81611307565b82525050565b6101808201600082015161133960008501826112e9565b50602082015161134c60208501826112f8565b50604082015161135f60408501826112f8565b50606082015161137260608501826112e9565b50608082015161138560808501826112e9565b5060a082015161139860a08501826112e9565b5060c08201516113ab60c08501826112e9565b5060e08201516113be60e08501826112e9565b506101008201516113d36101008501826112f8565b506101208201516113e8610120850182611313565b506101408201516113fd6101408501826112e9565b50610160820151611412610160850182611313565b50505050565b60006114248383611322565b6101808301905092915050565b6000602082019050919050565b6000611449826112bd565b61145381856112c8565b935061145e836112d9565b8060005b8381101561148f5781516114768882611418565b975061148183611431565b925050600181019050611462565b5085935050505092915050565b600060208201905081810360008301526114b6818461143e565b905092915050565b600080604083850312156114d5576114d46111b7565b5b60006114e38582860161123b565b92505060206114f48582860161123b565b9150509250929050565b611507816111dc565b82525050565b6115168161121a565b82525050565b600060608201905061153160008301866114fe565b61153e60208301856114fe565b61154b604083018461150d565b949350505050565b7f4e487b7100000000000000000000000000000000000000000000000000000000600052603260045260246000fd5b600082825260208201905092915050565b7f6e6f74206f776e6572206f662074686520746f6b656e00000000000000000000600082015250565b60006115c9601683611582565b91506115d482611593565b602082019050919050565b600060208201905081810360008301526115f8816115bc565b9050919050565b7f6e6f74207965742062696464696e670000000000000000000000000000000000600082015250565b6000611635600f83611582565b9150611640826115ff565b602082019050919050565b6000602082019050818103600083015261166481611628565b9050919050565b7f416c7265616479204269646465642e2e2e000000000000000000000000000000600082015250565b60006116a1601183611582565b91506116ac8261166b565b602082019050919050565b600060208201905081810360008301526116d081611694565b9050919050565b7f5374696c6c2061756374696f6e2074696d650000000000000000000000000000600082015250565b600061170d601283611582565b9150611718826116d7565b602082019050919050565b6000602082019050818103600083015261173c81611700565b9050919050565b7f796574206c6f616e20636f6e74696e7565732e2e2e0000000000000000000000600082015250565b6000611779601583611582565b915061178482611743565b602082019050919050565b600060208201905081810360008301526117a88161176c565b9050919050565b600081519050919050565b60005b838110156117d85780820151818401526020810190506117bd565b838111156117e7576000848401525b50505050565b6000601f19601f8301169050919050565b6000611809826117af565b6118138185611582565b93506118238185602086016117ba565b61182c816117ed565b840191505092915050565b6000604082019050818103600083015261185181856117fe565b905061186060208301846114fe565b9392505050565b6000602082019050818103600083015261188181846117fe565b905092915050565b7f4e487b7100000000000000000000000000000000000000000000000000000000600052601160045260246000fd5b60006118c38261121a565b91506118ce8361121a565b9250827fffffffffffffffffffffffffffffffffffffffffffffffffffffffffffffffff0382111561190357611902611889565b5b82820190509291505056fea264697066735822122060e4b959c294d0737beed11a3538ba973e8b9df695eb01c6b166ee3cd39acece64736f6c63430008090033",
  "linkReferences": {},
  "deployedLinkReferences": {}
}