{
  "_format": "hh-sol-artifact-1",
  "contractName": "Nftfi",
  "sourceName": "contracts/nft-fi.sol",
  "abi": [
    {
      "inputs": [],
      "stateMutability": "nonpayable",
      "type": "constructor"
    },
    {
      "inputs": [
        {
          "internalType": "address",
          "name": "_nftContractAddress",
          "type": "address"
        },
        {
          "internalType": "uint256",
          "name": "_tokenId",
          "type": "uint256"
        }
      ],
      "name": "collateralize",
      "outputs": [],
      "stateMutability": "payable",
      "type": "function"
    },
    {
      "inputs": [],
      "name": "getCollateralizedNFTs",
      "outputs": [
        {
          "components": [
            {
              "internalType": "uint256",
              "name": "countIndex",
              "type": "uint256"
            },
            {
              "internalType": "address",
              "name": "collateralizer",
              "type": "address"
            },
            {
              "internalType": "address",
              "name": "nftContractAddress",
              "type": "address"
            },
            {
              "internalType": "uint256",
              "name": "tokenId",
              "type": "uint256"
            },
            {
              "internalType": "uint256",
              "name": "timestamp",
              "type": "uint256"
            },
            {
              "internalType": "address",
              "name": "invester",
              "type": "address"
            },
            {
              "internalType": "uint256",
              "name": "price",
              "type": "uint256"
            },
            {
              "internalType": "bool",
              "name": "isCollateralizing",
              "type": "bool"
            }
          ],
          "internalType": "struct Nftfi.CollateralizedNFTInfo[]",
          "name": "",
          "type": "tuple[]"
        }
      ],
      "stateMutability": "view",
      "type": "function"
    },
    {
      "inputs": [
        {
          "internalType": "uint256",
          "name": "countIndex",
          "type": "uint256"
        },
        {
          "internalType": "uint256",
          "name": "price",
          "type": "uint256"
        }
      ],
      "name": "makeBid",
      "outputs": [],
      "stateMutability": "nonpayable",
      "type": "function"
    }
  ],
  "bytecode": "0x6080604052600060025534801561001557600080fd5b5073842bdfd7da2d603b176f0e41b58a6f2d785afbca6000806101000a81548173ffffffffffffffffffffffffffffffffffffffff021916908373ffffffffffffffffffffffffffffffffffffffff160217905550610afd806100796000396000f3fe6080604052600436106100345760003560e01c806301057af81461003957806347b3d18514610055578063adfcdc1114610080575b600080fd5b610053600480360381019061004e9190610771565b6100a9565b005b34801561006157600080fd5b5061006a610312565b604051610077919061093c565b60405180910390f35b34801561008c57600080fd5b506100a760048036038101906100a2919061095e565b6104b7565b005b60004290506000606490506000600180549050905060006040518061010001604052808381526020013373ffffffffffffffffffffffffffffffffffffffff1681526020018773ffffffffffffffffffffffffffffffffffffffff168152602001868152602001858152602001600073ffffffffffffffffffffffffffffffffffffffff16815260200184815260200160011515815250905060018190806001815401808255809150506001900390600052602060002090600802016000909190919091506000820151816000015560208201518160010160006101000a81548173ffffffffffffffffffffffffffffffffffffffff021916908373ffffffffffffffffffffffffffffffffffffffff16021790555060408201518160020160006101000a81548173ffffffffffffffffffffffffffffffffffffffff021916908373ffffffffffffffffffffffffffffffffffffffff160217905550606082015181600301556080820151816004015560a08201518160050160006101000a81548173ffffffffffffffffffffffffffffffffffffffff021916908373ffffffffffffffffffffffffffffffffffffffff16021790555060c0820151816006015560e08201518160070160006101000a81548160ff02191690831515021790555050506102cc6040518060400160405280600981526020017f63616c6c657220257300000000000000000000000000000000000000000000008152503361057a565b61030a6040518060400160405280600e81526020017f636f6c6c61746572616c697a6521000000000000000000000000000000000000815250610616565b505050505050565b60606001805480602002602001604051908101604052809291908181526020016000905b828210156104ae578382906000526020600020906008020160405180610100016040529081600082015481526020016001820160009054906101000a900473ffffffffffffffffffffffffffffffffffffffff1673ffffffffffffffffffffffffffffffffffffffff1673ffffffffffffffffffffffffffffffffffffffff1681526020016002820160009054906101000a900473ffffffffffffffffffffffffffffffffffffffff1673ffffffffffffffffffffffffffffffffffffffff1673ffffffffffffffffffffffffffffffffffffffff16815260200160038201548152602001600482015481526020016005820160009054906101000a900473ffffffffffffffffffffffffffffffffffffffff1673ffffffffffffffffffffffffffffffffffffffff1673ffffffffffffffffffffffffffffffffffffffff168152602001600682015481526020016007820160009054906101000a900460ff16151515158152505081526020019060010190610336565b50505050905090565b80600183815481106104cc576104cb61099e565b5b906000526020600020906008020160060154106104e857600080fd5b33600183815481106104fd576104fc61099e565b5b906000526020600020906008020160050160006101000a81548173ffffffffffffffffffffffffffffffffffffffff021916908373ffffffffffffffffffffffffffffffffffffffff16021790555080600183815481106105615761056061099e565b5b9060005260206000209060080201600601819055505050565b6106128282604051602401610590929190610a75565b6040516020818303038152906040527f319af333000000000000000000000000000000000000000000000000000000007bffffffffffffffffffffffffffffffffffffffffffffffffffffffff19166020820180517bffffffffffffffffffffffffffffffffffffffffffffffffffffffff83818316178352505050506106af565b5050565b6106ac8160405160240161062a9190610aa5565b6040516020818303038152906040527f41304fac000000000000000000000000000000000000000000000000000000007bffffffffffffffffffffffffffffffffffffffffffffffffffffffff19166020820180517bffffffffffffffffffffffffffffffffffffffffffffffffffffffff83818316178352505050506106af565b50565b60008151905060006a636f6e736f6c652e6c6f679050602083016000808483855afa5050505050565b600080fd5b600073ffffffffffffffffffffffffffffffffffffffff82169050919050565b6000610708826106dd565b9050919050565b610718816106fd565b811461072357600080fd5b50565b6000813590506107358161070f565b92915050565b6000819050919050565b61074e8161073b565b811461075957600080fd5b50565b60008135905061076b81610745565b92915050565b60008060408385031215610788576107876106d8565b5b600061079685828601610726565b92505060206107a78582860161075c565b9150509250929050565b600081519050919050565b600082825260208201905092915050565b6000819050602082019050919050565b6107e68161073b565b82525050565b6107f5816106fd565b82525050565b60008115159050919050565b610810816107fb565b82525050565b6101008201600082015161082d60008501826107dd565b50602082015161084060208501826107ec565b50604082015161085360408501826107ec565b50606082015161086660608501826107dd565b50608082015161087960808501826107dd565b5060a082015161088c60a08501826107ec565b5060c082015161089f60c08501826107dd565b5060e08201516108b260e0850182610807565b50505050565b60006108c48383610816565b6101008301905092915050565b6000602082019050919050565b60006108e9826107b1565b6108f381856107bc565b93506108fe836107cd565b8060005b8381101561092f57815161091688826108b8565b9750610921836108d1565b925050600181019050610902565b5085935050505092915050565b6000602082019050818103600083015261095681846108de565b905092915050565b60008060408385031215610975576109746106d8565b5b60006109838582860161075c565b92505060206109948582860161075c565b9150509250929050565b7f4e487b7100000000000000000000000000000000000000000000000000000000600052603260045260246000fd5b600081519050919050565b600082825260208201905092915050565b60005b83811015610a075780820151818401526020810190506109ec565b83811115610a16576000848401525b50505050565b6000601f19601f8301169050919050565b6000610a38826109cd565b610a4281856109d8565b9350610a528185602086016109e9565b610a5b81610a1c565b840191505092915050565b610a6f816106fd565b82525050565b60006040820190508181036000830152610a8f8185610a2d565b9050610a9e6020830184610a66565b9392505050565b60006020820190508181036000830152610abf8184610a2d565b90509291505056fea264697066735822122091b44897076ffab519d25fdec8e623f55c33c45d23f237a19e26f7a6b21bf3e864736f6c63430008090033",
  "linkReferences": {},
  "deployedLinkReferences": {}
}