{
  "_format": "hh-sol-artifact-1",
  "contractName": "Nftfi",
  "sourceName": "contracts/nft-fi.sol",
  "abi": [
    {
      "inputs": [],
      "stateMutability": "nonpayable",
      "type": "constructor"
    },
    {
      "inputs": [
        {
          "internalType": "uint256",
          "name": "countIndex",
          "type": "uint256"
        }
      ],
      "name": "accept",
      "outputs": [],
      "stateMutability": "payable",
      "type": "function"
    },
    {
      "inputs": [
        {
          "internalType": "address",
          "name": "_nftContractAddress",
          "type": "address"
        },
        {
          "internalType": "uint256",
          "name": "_tokenId",
          "type": "uint256"
        }
      ],
      "name": "collateralize",
      "outputs": [],
      "stateMutability": "payable",
      "type": "function"
    },
    {
      "inputs": [],
      "name": "getCollateralizedNFTs",
      "outputs": [
        {
          "components": [
            {
              "internalType": "uint256",
              "name": "countIndex",
              "type": "uint256"
            },
            {
              "internalType": "address",
              "name": "collateralizer",
              "type": "address"
            },
            {
              "internalType": "address",
              "name": "nftContractAddress",
              "type": "address"
            },
            {
              "internalType": "uint256",
              "name": "tokenId",
              "type": "uint256"
            },
            {
              "internalType": "uint256",
              "name": "timestamp",
              "type": "uint256"
            },
            {
              "internalType": "uint256",
              "name": "auctionDuration",
              "type": "uint256"
            },
            {
              "internalType": "uint256",
              "name": "loanStartTime",
              "type": "uint256"
            },
            {
              "internalType": "uint256",
              "name": "loanDuration",
              "type": "uint256"
            },
            {
              "internalType": "address",
              "name": "invester",
              "type": "address"
            },
            {
              "internalType": "bool",
              "name": "isBidding",
              "type": "bool"
            },
            {
              "internalType": "uint256",
              "name": "biggestBidPrice",
              "type": "uint256"
            },
            {
              "internalType": "bool",
              "name": "isCollateralizing",
              "type": "bool"
            }
          ],
          "internalType": "struct Nftfi.CollateralizedNFTInfo[]",
          "name": "",
          "type": "tuple[]"
        }
      ],
      "stateMutability": "view",
      "type": "function"
    },
    {
      "inputs": [
        {
          "internalType": "uint256",
          "name": "countIndex",
          "type": "uint256"
        }
      ],
      "name": "liquidate",
      "outputs": [],
      "stateMutability": "payable",
      "type": "function"
    },
    {
      "inputs": [
        {
          "internalType": "uint256",
          "name": "countIndex",
          "type": "uint256"
        },
        {
          "internalType": "uint256",
          "name": "price",
          "type": "uint256"
        }
      ],
      "name": "makeBid",
      "outputs": [],
      "stateMutability": "payable",
      "type": "function"
    },
    {
      "inputs": [
        {
          "internalType": "uint256",
          "name": "countIndex",
          "type": "uint256"
        }
      ],
      "name": "payback",
      "outputs": [],
      "stateMutability": "payable",
      "type": "function"
    },
    {
      "inputs": [
        {
          "internalType": "uint256",
          "name": "countIndex",
          "type": "uint256"
        }
      ],
      "name": "withdraw",
      "outputs": [],
      "stateMutability": "payable",
      "type": "function"
    }
  ],
  "bytecode": "0x60806040526005600255600560035534801561001a57600080fd5b5073842bdfd7da2d603b176f0e41b58a6f2d785afbca6000806101000a81548173ffffffffffffffffffffffffffffffffffffffff021916908373ffffffffffffffffffffffffffffffffffffffff160217905550732d74278af15427f2b8216ad29c947e44b86d3934600160006101000a81548173ffffffffffffffffffffffffffffffffffffffff021916908373ffffffffffffffffffffffffffffffffffffffff160217905550611aa5806100d36000396000f3fe6080604052600436106100705760003560e01c8063415f12401161004e578063415f1240146100c957806347b3d185146100e5578063a846c2fd14610110578063adfcdc111461012c57610070565b806301057af81461007557806319b05f49146100915780632e1a7d4d146100ad575b600080fd5b61008f600480360381019061008a9190611388565b610148565b005b6100ab60048036038101906100a691906113c8565b6104a6565b005b6100c760048036038101906100c291906113c8565b6106f1565b005b6100e360048036038101906100de91906113c8565b61096c565b005b3480156100f157600080fd5b506100fa610b06565b60405161010791906115d4565b60405180910390f35b61012a600480360381019061012591906113c8565b610ce4565b005b610146600480360381019061014191906115f6565b610eb7565b005b60004290506000600480549050905060006040518061018001604052808381526020013373ffffffffffffffffffffffffffffffffffffffff1681526020018673ffffffffffffffffffffffffffffffffffffffff16815260200185815260200184815260200162093a8081526020016000815260200162093a808152602001600073ffffffffffffffffffffffffffffffffffffffff16815260200160001515815260200168056bc75e2d63100000815260200160011515815250905060048190806001815401808255809150506001900390600052602060002090600b02016000909190919091506000820151816000015560208201518160010160006101000a81548173ffffffffffffffffffffffffffffffffffffffff021916908373ffffffffffffffffffffffffffffffffffffffff16021790555060408201518160020160006101000a81548173ffffffffffffffffffffffffffffffffffffffff021916908373ffffffffffffffffffffffffffffffffffffffff160217905550606082015181600301556080820151816004015560a0820151816005015560c0820151816006015560e082015181600701556101008201518160080160006101000a81548173ffffffffffffffffffffffffffffffffffffffff021916908373ffffffffffffffffffffffffffffffffffffffff1602179055506101208201518160080160146101000a81548160ff021916908315150217905550610140820151816009015561016082015181600a0160006101000a81548160ff02191690831515021790555050506103d26040518060400160405280600981526020017f63616c6c657220257300000000000000000000000000000000000000000000008152503361117b565b60008054906101000a900473ffffffffffffffffffffffffffffffffffffffff1673ffffffffffffffffffffffffffffffffffffffff166323b872dd3330876040518463ffffffff1660e01b815260040161042f93929190611654565b600060405180830381600087803b15801561044957600080fd5b505af115801561045d573d6000803e3d6000fd5b5050505061049f6040518060400160405280600e81526020017f636f6c6c61746572616c697a6521000000000000000000000000000000000000815250611217565b5050505050565b3373ffffffffffffffffffffffffffffffffffffffff16600482815481106104d1576104d061168b565b5b90600052602060002090600b020160010160009054906101000a900473ffffffffffffffffffffffffffffffffffffffff1673ffffffffffffffffffffffffffffffffffffffff1614610559576040517f08c379a000000000000000000000000000000000000000000000000000000000815260040161055090611717565b60405180910390fd5b6004818154811061056d5761056c61168b565b5b90600052602060002090600b020160080160149054906101000a900460ff166105cb576040517f08c379a00000000000000000000000000000000000000000000000000000000081526004016105c290611783565b60405180910390fd5b42600482815481106105e0576105df61168b565b5b90600052602060002090600b020160060181905550600160009054906101000a900473ffffffffffffffffffffffffffffffffffffffff1673ffffffffffffffffffffffffffffffffffffffff1663a9059cbb600483815481106106475761064661168b565b5b90600052602060002090600b020160010160009054906101000a900473ffffffffffffffffffffffffffffffffffffffff166004848154811061068d5761068c61168b565b5b90600052602060002090600b0201600901546040518363ffffffff1660e01b81526004016106bc9291906117a3565b600060405180830381600087803b1580156106d657600080fd5b505af11580156106ea573d6000803e3d6000fd5b5050505050565b3373ffffffffffffffffffffffffffffffffffffffff166004828154811061071c5761071b61168b565b5b90600052602060002090600b020160010160009054906101000a900473ffffffffffffffffffffffffffffffffffffffff1673ffffffffffffffffffffffffffffffffffffffff16146107a4576040517f08c379a000000000000000000000000000000000000000000000000000000000815260040161079b90611717565b60405180910390fd5b600481815481106107b8576107b761168b565b5b90600052602060002090600b020160080160149054906101000a900460ff1615610817576040517f08c379a000000000000000000000000000000000000000000000000000000000815260040161080e90611818565b60405180910390fd5b426108756004838154811061082f5761082e61168b565b5b90600052602060002090600b020160050154600484815481106108555761085461168b565b5b90600052602060002090600b0201600401546112b090919063ffffffff16565b106108b5576040517f08c379a00000000000000000000000000000000000000000000000000000000081526004016108ac90611884565b60405180910390fd5b60008054906101000a900473ffffffffffffffffffffffffffffffffffffffff1673ffffffffffffffffffffffffffffffffffffffff166323b872dd3033600485815481106109075761090661168b565b5b90600052602060002090600b0201600301546040518463ffffffff1660e01b815260040161093793929190611654565b600060405180830381600087803b15801561095157600080fd5b505af1158015610965573d6000803e3d6000fd5b5050505050565b6109c9600482815481106109835761098261168b565b5b90600052602060002090600b020160070154600483815481106109a9576109a861168b565b5b90600052602060002090600b0201600601546112b090919063ffffffff16565b4211610a0a576040517f08c379a0000000000000000000000000000000000000000000000000000000008152600401610a01906118f0565b60405180910390fd5b60008054906101000a900473ffffffffffffffffffffffffffffffffffffffff1673ffffffffffffffffffffffffffffffffffffffff166323b872dd3060048481548110610a5b57610a5a61168b565b5b90600052602060002090600b020160080160009054906101000a900473ffffffffffffffffffffffffffffffffffffffff1660048581548110610aa157610aa061168b565b5b90600052602060002090600b0201600301546040518463ffffffff1660e01b8152600401610ad193929190611654565b600060405180830381600087803b158015610aeb57600080fd5b505af1158015610aff573d6000803e3d6000fd5b5050505050565b60606004805480602002602001604051908101604052809291908181526020016000905b82821015610cdb57838290600052602060002090600b020160405180610180016040529081600082015481526020016001820160009054906101000a900473ffffffffffffffffffffffffffffffffffffffff1673ffffffffffffffffffffffffffffffffffffffff1673ffffffffffffffffffffffffffffffffffffffff1681526020016002820160009054906101000a900473ffffffffffffffffffffffffffffffffffffffff1673ffffffffffffffffffffffffffffffffffffffff1673ffffffffffffffffffffffffffffffffffffffff16815260200160038201548152602001600482015481526020016005820154815260200160068201548152602001600782015481526020016008820160009054906101000a900473ffffffffffffffffffffffffffffffffffffffff1673ffffffffffffffffffffffffffffffffffffffff1673ffffffffffffffffffffffffffffffffffffffff1681526020016008820160149054906101000a900460ff1615151515815260200160098201548152602001600a820160009054906101000a900460ff16151515158152505081526020019060010190610b2a565b50505050905090565b3373ffffffffffffffffffffffffffffffffffffffff1660048281548110610d0f57610d0e61168b565b5b90600052602060002090600b020160010160009054906101000a900473ffffffffffffffffffffffffffffffffffffffff1673ffffffffffffffffffffffffffffffffffffffff1614610d97576040517f08c379a0000000000000000000000000000000000000000000000000000000008152600401610d8e90611717565b60405180910390fd5b610df460048281548110610dae57610dad61168b565b5b90600052602060002090600b02016007015460048381548110610dd457610dd361168b565b5b90600052602060002090600b0201600601546112b090919063ffffffff16565b421115610e0057600080fd5b60008054906101000a900473ffffffffffffffffffffffffffffffffffffffff1673ffffffffffffffffffffffffffffffffffffffff166323b872dd303360048581548110610e5257610e5161168b565b5b90600052602060002090600b0201600301546040518463ffffffff1660e01b8152600401610e8293929190611654565b600060405180830381600087803b158015610e9c57600080fd5b505af1158015610eb0573d6000803e3d6000fd5b5050505050565b8060048381548110610ecc57610ecb61168b565b5b90600052602060002090600b02016009015410610ee857600080fd5b60048281548110610efc57610efb61168b565b5b90600052602060002090600b020160080160149054906101000a900460ff161561101a57600160009054906101000a900473ffffffffffffffffffffffffffffffffffffffff1673ffffffffffffffffffffffffffffffffffffffff1663a9059cbb60048481548110610f7257610f7161168b565b5b90600052602060002090600b020160080160009054906101000a900473ffffffffffffffffffffffffffffffffffffffff1660048581548110610fb857610fb761168b565b5b90600052602060002090600b0201600901546040518363ffffffff1660e01b8152600401610fe79291906117a3565b600060405180830381600087803b15801561100157600080fd5b505af1158015611015573d6000803e3d6000fd5b505050505b336004838154811061102f5761102e61168b565b5b90600052602060002090600b020160080160006101000a81548173ffffffffffffffffffffffffffffffffffffffff021916908373ffffffffffffffffffffffffffffffffffffffff16021790555080600483815481106110935761109261168b565b5b90600052602060002090600b0201600901819055506001600483815481106110be576110bd61168b565b5b90600052602060002090600b020160080160146101000a81548160ff021916908315150217905550600160009054906101000a900473ffffffffffffffffffffffffffffffffffffffff1673ffffffffffffffffffffffffffffffffffffffff166323b872dd3330846040518463ffffffff1660e01b815260040161114593929190611654565b600060405180830381600087803b15801561115f57600080fd5b505af1158015611173573d6000803e3d6000fd5b505050505050565b6112138282604051602401611191929190611998565b6040516020818303038152906040527f319af333000000000000000000000000000000000000000000000000000000007bffffffffffffffffffffffffffffffffffffffffffffffffffffffff19166020820180517bffffffffffffffffffffffffffffffffffffffffffffffffffffffff83818316178352505050506112c6565b5050565b6112ad8160405160240161122b91906119c8565b6040516020818303038152906040527f41304fac000000000000000000000000000000000000000000000000000000007bffffffffffffffffffffffffffffffffffffffffffffffffffffffff19166020820180517bffffffffffffffffffffffffffffffffffffffffffffffffffffffff83818316178352505050506112c6565b50565b600081836112be9190611a19565b905092915050565b60008151905060006a636f6e736f6c652e6c6f679050602083016000808483855afa5050505050565b600080fd5b600073ffffffffffffffffffffffffffffffffffffffff82169050919050565b600061131f826112f4565b9050919050565b61132f81611314565b811461133a57600080fd5b50565b60008135905061134c81611326565b92915050565b6000819050919050565b61136581611352565b811461137057600080fd5b50565b6000813590506113828161135c565b92915050565b6000806040838503121561139f5761139e6112ef565b5b60006113ad8582860161133d565b92505060206113be85828601611373565b9150509250929050565b6000602082840312156113de576113dd6112ef565b5b60006113ec84828501611373565b91505092915050565b600081519050919050565b600082825260208201905092915050565b6000819050602082019050919050565b61142a81611352565b82525050565b61143981611314565b82525050565b60008115159050919050565b6114548161143f565b82525050565b610180820160008201516114716000850182611421565b5060208201516114846020850182611430565b5060408201516114976040850182611430565b5060608201516114aa6060850182611421565b5060808201516114bd6080850182611421565b5060a08201516114d060a0850182611421565b5060c08201516114e360c0850182611421565b5060e08201516114f660e0850182611421565b5061010082015161150b610100850182611430565b5061012082015161152061012085018261144b565b50610140820151611535610140850182611421565b5061016082015161154a61016085018261144b565b50505050565b600061155c838361145a565b6101808301905092915050565b6000602082019050919050565b6000611581826113f5565b61158b8185611400565b935061159683611411565b8060005b838110156115c75781516115ae8882611550565b97506115b983611569565b92505060018101905061159a565b5085935050505092915050565b600060208201905081810360008301526115ee8184611576565b905092915050565b6000806040838503121561160d5761160c6112ef565b5b600061161b85828601611373565b925050602061162c85828601611373565b9150509250929050565b61163f81611314565b82525050565b61164e81611352565b82525050565b60006060820190506116696000830186611636565b6116766020830185611636565b6116836040830184611645565b949350505050565b7f4e487b7100000000000000000000000000000000000000000000000000000000600052603260045260246000fd5b600082825260208201905092915050565b7f6e6f74206f776e6572206f662074686520746f6b656e00000000000000000000600082015250565b60006117016016836116ba565b915061170c826116cb565b602082019050919050565b60006020820190508181036000830152611730816116f4565b9050919050565b7f6e6f74207965742062696464696e670000000000000000000000000000000000600082015250565b600061176d600f836116ba565b915061177882611737565b602082019050919050565b6000602082019050818103600083015261179c81611760565b9050919050565b60006040820190506117b86000830185611636565b6117c56020830184611645565b9392505050565b7f416c7265616479204269646465642e2e2e000000000000000000000000000000600082015250565b60006118026011836116ba565b915061180d826117cc565b602082019050919050565b60006020820190508181036000830152611831816117f5565b9050919050565b7f5374696c6c2061756374696f6e2074696d650000000000000000000000000000600082015250565b600061186e6012836116ba565b915061187982611838565b602082019050919050565b6000602082019050818103600083015261189d81611861565b9050919050565b7f796574206c6f616e20636f6e74696e7565732e2e2e0000000000000000000000600082015250565b60006118da6015836116ba565b91506118e5826118a4565b602082019050919050565b60006020820190508181036000830152611909816118cd565b9050919050565b600081519050919050565b60005b8381101561193957808201518184015260208101905061191e565b83811115611948576000848401525b50505050565b6000601f19601f8301169050919050565b600061196a82611910565b61197481856116ba565b935061198481856020860161191b565b61198d8161194e565b840191505092915050565b600060408201905081810360008301526119b2818561195f565b90506119c16020830184611636565b9392505050565b600060208201905081810360008301526119e2818461195f565b905092915050565b7f4e487b7100000000000000000000000000000000000000000000000000000000600052601160045260246000fd5b6000611a2482611352565b9150611a2f83611352565b9250827fffffffffffffffffffffffffffffffffffffffffffffffffffffffffffffffff03821115611a6457611a636119ea565b5b82820190509291505056fea26469706673582212200615c325ecdc6783d89ef7c4820295f40df694b04e5c0a36954b2f5629e2914564736f6c63430008090033",
  "linkReferences": {},
  "deployedLinkReferences": {}
}