{
  "_format": "hh-sol-artifact-1",
  "contractName": "MyNFT",
  "sourceName": "contracts/MyNFT.sol",
  "abi": [
    {
      "inputs": [],
      "stateMutability": "nonpayable",
      "type": "constructor"
    },
    {
      "anonymous": false,
      "inputs": [
        {
          "indexed": true,
          "internalType": "address",
          "name": "owner",
          "type": "address"
        },
        {
          "indexed": true,
          "internalType": "address",
          "name": "approved",
          "type": "address"
        },
        {
          "indexed": true,
          "internalType": "uint256",
          "name": "tokenId",
          "type": "uint256"
        }
      ],
      "name": "Approval",
      "type": "event"
    },
    {
      "anonymous": false,
      "inputs": [
        {
          "indexed": true,
          "internalType": "address",
          "name": "owner",
          "type": "address"
        },
        {
          "indexed": true,
          "internalType": "address",
          "name": "operator",
          "type": "address"
        },
        {
          "indexed": false,
          "internalType": "bool",
          "name": "approved",
          "type": "bool"
        }
      ],
      "name": "ApprovalForAll",
      "type": "event"
    },
    {
      "anonymous": false,
      "inputs": [
        {
          "indexed": false,
          "internalType": "address",
          "name": "sender",
          "type": "address"
        },
        {
          "indexed": false,
          "internalType": "uint256",
          "name": "tokenId",
          "type": "uint256"
        }
      ],
      "name": "NewMyNFTMinted",
      "type": "event"
    },
    {
      "anonymous": false,
      "inputs": [
        {
          "indexed": true,
          "internalType": "address",
          "name": "from",
          "type": "address"
        },
        {
          "indexed": true,
          "internalType": "address",
          "name": "to",
          "type": "address"
        },
        {
          "indexed": true,
          "internalType": "uint256",
          "name": "tokenId",
          "type": "uint256"
        }
      ],
      "name": "Transfer",
      "type": "event"
    },
    {
      "inputs": [
        {
          "internalType": "address",
          "name": "to",
          "type": "address"
        },
        {
          "internalType": "uint256",
          "name": "tokenId",
          "type": "uint256"
        }
      ],
      "name": "approve",
      "outputs": [],
      "stateMutability": "nonpayable",
      "type": "function"
    },
    {
      "inputs": [
        {
          "internalType": "address",
          "name": "owner",
          "type": "address"
        }
      ],
      "name": "balanceOf",
      "outputs": [
        {
          "internalType": "uint256",
          "name": "",
          "type": "uint256"
        }
      ],
      "stateMutability": "view",
      "type": "function"
    },
    {
      "inputs": [
        {
          "internalType": "uint256",
          "name": "tokenId",
          "type": "uint256"
        }
      ],
      "name": "getApproved",
      "outputs": [
        {
          "internalType": "address",
          "name": "",
          "type": "address"
        }
      ],
      "stateMutability": "view",
      "type": "function"
    },
    {
      "inputs": [
        {
          "internalType": "address",
          "name": "owner",
          "type": "address"
        },
        {
          "internalType": "address",
          "name": "operator",
          "type": "address"
        }
      ],
      "name": "isApprovedForAll",
      "outputs": [
        {
          "internalType": "bool",
          "name": "",
          "type": "bool"
        }
      ],
      "stateMutability": "view",
      "type": "function"
    },
    {
      "inputs": [
        {
          "internalType": "string",
          "name": "_first",
          "type": "string"
        },
        {
          "internalType": "string",
          "name": "_second",
          "type": "string"
        },
        {
          "internalType": "string",
          "name": "_third",
          "type": "string"
        }
      ],
      "name": "makeMyNFT",
      "outputs": [],
      "stateMutability": "nonpayable",
      "type": "function"
    },
    {
      "inputs": [],
      "name": "name",
      "outputs": [
        {
          "internalType": "string",
          "name": "",
          "type": "string"
        }
      ],
      "stateMutability": "view",
      "type": "function"
    },
    {
      "inputs": [
        {
          "internalType": "uint256",
          "name": "tokenId",
          "type": "uint256"
        }
      ],
      "name": "ownerOf",
      "outputs": [
        {
          "internalType": "address",
          "name": "",
          "type": "address"
        }
      ],
      "stateMutability": "view",
      "type": "function"
    },
    {
      "inputs": [
        {
          "internalType": "address",
          "name": "from",
          "type": "address"
        },
        {
          "internalType": "address",
          "name": "to",
          "type": "address"
        },
        {
          "internalType": "uint256",
          "name": "tokenId",
          "type": "uint256"
        }
      ],
      "name": "safeTransferFrom",
      "outputs": [],
      "stateMutability": "nonpayable",
      "type": "function"
    },
    {
      "inputs": [
        {
          "internalType": "address",
          "name": "from",
          "type": "address"
        },
        {
          "internalType": "address",
          "name": "to",
          "type": "address"
        },
        {
          "internalType": "uint256",
          "name": "tokenId",
          "type": "uint256"
        },
        {
          "internalType": "bytes",
          "name": "data",
          "type": "bytes"
        }
      ],
      "name": "safeTransferFrom",
      "outputs": [],
      "stateMutability": "nonpayable",
      "type": "function"
    },
    {
      "inputs": [
        {
          "internalType": "address",
          "name": "operator",
          "type": "address"
        },
        {
          "internalType": "bool",
          "name": "approved",
          "type": "bool"
        }
      ],
      "name": "setApprovalForAll",
      "outputs": [],
      "stateMutability": "nonpayable",
      "type": "function"
    },
    {
      "inputs": [
        {
          "internalType": "bytes4",
          "name": "interfaceId",
          "type": "bytes4"
        }
      ],
      "name": "supportsInterface",
      "outputs": [
        {
          "internalType": "bool",
          "name": "",
          "type": "bool"
        }
      ],
      "stateMutability": "view",
      "type": "function"
    },
    {
      "inputs": [],
      "name": "symbol",
      "outputs": [
        {
          "internalType": "string",
          "name": "",
          "type": "string"
        }
      ],
      "stateMutability": "view",
      "type": "function"
    },
    {
      "inputs": [
        {
          "internalType": "uint256",
          "name": "tokenId",
          "type": "uint256"
        }
      ],
      "name": "tokenURI",
      "outputs": [
        {
          "internalType": "string",
          "name": "",
          "type": "string"
        }
      ],
      "stateMutability": "view",
      "type": "function"
    },
    {
      "inputs": [
        {
          "internalType": "address",
          "name": "from",
          "type": "address"
        },
        {
          "internalType": "address",
          "name": "to",
          "type": "address"
        },
        {
          "internalType": "uint256",
          "name": "tokenId",
          "type": "uint256"
        }
      ],
      "name": "transferFrom",
      "outputs": [],
      "stateMutability": "nonpayable",
      "type": "function"
    }
  ],
  "bytecode": "0x608060405260405180610160016040528061012f81526020016200369861012f9139600890805190602001906200003892919062000204565b503480156200004657600080fd5b506040518060400160405280600881526020017f47616d654974656d0000000000000000000000000000000000000000000000008152506040518060400160405280600381526020017f49544d00000000000000000000000000000000000000000000000000000000008152508160009080519060200190620000cb92919062000204565b508060019080519060200190620000e492919062000204565b505050620001326040518060400160405280601881526020017f54686973206973206d79204e465420636f6e74726163742e00000000000000008152506200013860201b62000ca51760201c565b620003e1565b620001d8816040516024016200014f919062000358565b6040516020818303038152906040527f41304fac000000000000000000000000000000000000000000000000000000007bffffffffffffffffffffffffffffffffffffffffffffffffffffffff19166020820180517bffffffffffffffffffffffffffffffffffffffffffffffffffffffff8381831617835250505050620001db60201b60201c565b50565b60008151905060006a636f6e736f6c652e6c6f679050602083016000808483855afa5050505050565b8280546200021290620003ab565b90600052602060002090601f01602090048101928262000236576000855562000282565b82601f106200025157805160ff191683800117855562000282565b8280016001018555821562000282579182015b828111156200028157825182559160200191906001019062000264565b5b50905062000291919062000295565b5090565b5b80821115620002b057600081600090555060010162000296565b5090565b600081519050919050565b600082825260208201905092915050565b60005b83811015620002f0578082015181840152602081019050620002d3565b8381111562000300576000848401525b50505050565b6000601f19601f8301169050919050565b60006200032482620002b4565b620003308185620002bf565b935062000342818560208601620002d0565b6200034d8162000306565b840191505092915050565b6000602082019050818103600083015262000374818462000317565b905092915050565b7f4e487b7100000000000000000000000000000000000000000000000000000000600052602260045260246000fd5b60006002820490506001821680620003c457607f821691505b60208210811415620003db57620003da6200037c565b5b50919050565b6132a780620003f16000396000f3fe608060405234801561001057600080fd5b50600436106100ea5760003560e01c806370a082311161008c578063b88d4fde11610066578063b88d4fde1461025b578063c87b56dd14610277578063d27f131d146102a7578063e985e9c5146102c3576100ea565b806370a08231146101f157806395d89b4114610221578063a22cb4651461023f576100ea565b8063095ea7b3116100c8578063095ea7b31461016d57806323b872dd1461018957806342842e0e146101a55780636352211e146101c1576100ea565b806301ffc9a7146100ef57806306fdde031461011f578063081812fc1461013d575b600080fd5b61010960048036038101906101049190611de3565b6102f3565b6040516101169190611e2b565b60405180910390f35b6101276103d5565b6040516101349190611edf565b60405180910390f35b61015760048036038101906101529190611f37565b610467565b6040516101649190611fa5565b60405180910390f35b61018760048036038101906101829190611fec565b6104ad565b005b6101a3600480360381019061019e919061202c565b6105c5565b005b6101bf60048036038101906101ba919061202c565b610625565b005b6101db60048036038101906101d69190611f37565b610645565b6040516101e89190611fa5565b60405180910390f35b61020b6004803603810190610206919061207f565b6106f7565b60405161021891906120bb565b60405180910390f35b6102296107af565b6040516102369190611edf565b60405180910390f35b61025960048036038101906102549190612102565b610841565b005b61027560048036038101906102709190612277565b610857565b005b610291600480360381019061028c9190611f37565b6108b9565b60405161029e9190611edf565b60405180910390f35b6102c160048036038101906102bc919061239b565b6109cc565b005b6102dd60048036038101906102d89190612442565b610c11565b6040516102ea9190611e2b565b60405180910390f35b60007f80ac58cd000000000000000000000000000000000000000000000000000000007bffffffffffffffffffffffffffffffffffffffffffffffffffffffff1916827bffffffffffffffffffffffffffffffffffffffffffffffffffffffff191614806103be57507f5b5e139f000000000000000000000000000000000000000000000000000000007bffffffffffffffffffffffffffffffffffffffffffffffffffffffff1916827bffffffffffffffffffffffffffffffffffffffffffffffffffffffff1916145b806103ce57506103cd82610d3e565b5b9050919050565b6060600080546103e4906124b1565b80601f0160208091040260200160405190810160405280929190818152602001828054610410906124b1565b801561045d5780601f106104325761010080835404028352916020019161045d565b820191906000526020600020905b81548152906001019060200180831161044057829003601f168201915b5050505050905090565b600061047282610da8565b6004600083815260200190815260200160002060009054906101000a900473ffffffffffffffffffffffffffffffffffffffff169050919050565b60006104b882610645565b90508073ffffffffffffffffffffffffffffffffffffffff168373ffffffffffffffffffffffffffffffffffffffff161415610529576040517f08c379a000000000000000000000000000000000000000000000000000000000815260040161052090612555565b60405180910390fd5b8073ffffffffffffffffffffffffffffffffffffffff16610548610df3565b73ffffffffffffffffffffffffffffffffffffffff161480610577575061057681610571610df3565b610c11565b5b6105b6576040517f08c379a00000000000000000000000000000000000000000000000000000000081526004016105ad906125e7565b60405180910390fd5b6105c08383610dfb565b505050565b6105d66105d0610df3565b82610eb4565b610615576040517f08c379a000000000000000000000000000000000000000000000000000000000815260040161060c90612679565b60405180910390fd5b610620838383610f49565b505050565b61064083838360405180602001604052806000815250610857565b505050565b6000806002600084815260200190815260200160002060009054906101000a900473ffffffffffffffffffffffffffffffffffffffff169050600073ffffffffffffffffffffffffffffffffffffffff168173ffffffffffffffffffffffffffffffffffffffff1614156106ee576040517f08c379a00000000000000000000000000000000000000000000000000000000081526004016106e5906126e5565b60405180910390fd5b80915050919050565b60008073ffffffffffffffffffffffffffffffffffffffff168273ffffffffffffffffffffffffffffffffffffffff161415610768576040517f08c379a000000000000000000000000000000000000000000000000000000000815260040161075f90612777565b60405180910390fd5b600360008373ffffffffffffffffffffffffffffffffffffffff1673ffffffffffffffffffffffffffffffffffffffff168152602001908152602001600020549050919050565b6060600180546107be906124b1565b80601f01602080910402602001604051908101604052809291908181526020018280546107ea906124b1565b80156108375780601f1061080c57610100808354040283529160200191610837565b820191906000526020600020905b81548152906001019060200180831161081a57829003601f168201915b5050505050905090565b61085361084c610df3565b83836111b0565b5050565b610868610862610df3565b83610eb4565b6108a7576040517f08c379a000000000000000000000000000000000000000000000000000000000815260040161089e90612679565b60405180910390fd5b6108b38484848461131d565b50505050565b60606108c482610da8565b60006006600084815260200190815260200160002080546108e4906124b1565b80601f0160208091040260200160405190810160405280929190818152602001828054610910906124b1565b801561095d5780601f106109325761010080835404028352916020019161095d565b820191906000526020600020905b81548152906001019060200180831161094057829003601f168201915b50505050509050600061096e611379565b90506000815114156109845781925050506109c7565b6000825111156109b95780826040516020016109a19291906127d3565b604051602081830303815290604052925050506109c7565b6109c284611390565b925050505b919050565b60006109d860076113f8565b905060008484846040516020016109f1939291906127f7565b60405160208183030381529060405290506000600882604051602001610a18929190612908565b6040516020818303038152906040529050610a676040518060400160405280601581526020017f0a2d2d2d2d2d2d2d2d2d2d2d2d2d2d2d2d2d2d2d2d0000000000000000000000815250610ca5565b610a7081610ca5565b610aae6040518060400160405280601581526020017f2d2d2d2d2d2d2d2d2d2d2d2d2d2d2d2d2d2d2d2d0a0000000000000000000000815250610ca5565b6000610ae283610abd84611406565b604051602001610ace929190612a67565b604051602081830303815290604052611406565b9050600081604051602001610af79190612af8565b6040516020818303038152906040529050610b466040518060400160405280601581526020017f0a2d2d2d2d2d20546f6b656e20555249202d2d2d2d0000000000000000000000815250610ca5565b610b4f81610ca5565b610b8d6040518060400160405280601581526020017f2d2d2d2d2d2d2d2d2d2d2d2d2d2d2d2d2d2d2d2d0a0000000000000000000000815250610ca5565b610b97338661159e565b610ba185826115bc565b610bc460405180606001604052806025815260200161320d602591398633611630565b610bce60076116cf565b7ff64c66ffe7d6e4bb94f2b91485d0fc53bb717fdada1a970946093e0f2557a13e3386604051610bff929190612b1a565b60405180910390a15050505050505050565b6000600560008473ffffffffffffffffffffffffffffffffffffffff1673ffffffffffffffffffffffffffffffffffffffff16815260200190815260200160002060008373ffffffffffffffffffffffffffffffffffffffff1673ffffffffffffffffffffffffffffffffffffffff16815260200190815260200160002060009054906101000a900460ff16905092915050565b610d3b81604051602401610cb99190611edf565b6040516020818303038152906040527f41304fac000000000000000000000000000000000000000000000000000000007bffffffffffffffffffffffffffffffffffffffffffffffffffffffff19166020820180517bffffffffffffffffffffffffffffffffffffffffffffffffffffffff83818316178352505050506116e5565b50565b60007f01ffc9a7000000000000000000000000000000000000000000000000000000007bffffffffffffffffffffffffffffffffffffffffffffffffffffffff1916827bffffffffffffffffffffffffffffffffffffffffffffffffffffffff1916149050919050565b610db18161170e565b610df0576040517f08c379a0000000000000000000000000000000000000000000000000000000008152600401610de7906126e5565b60405180910390fd5b50565b600033905090565b816004600083815260200190815260200160002060006101000a81548173ffffffffffffffffffffffffffffffffffffffff021916908373ffffffffffffffffffffffffffffffffffffffff160217905550808273ffffffffffffffffffffffffffffffffffffffff16610e6e83610645565b73ffffffffffffffffffffffffffffffffffffffff167f8c5be1e5ebec7d5bd14f71427d1e84f3dd0314c0f7b2291e5b200ac8c7c3b92560405160405180910390a45050565b600080610ec083610645565b90508073ffffffffffffffffffffffffffffffffffffffff168473ffffffffffffffffffffffffffffffffffffffff161480610f025750610f018185610c11565b5b80610f4057508373ffffffffffffffffffffffffffffffffffffffff16610f2884610467565b73ffffffffffffffffffffffffffffffffffffffff16145b91505092915050565b8273ffffffffffffffffffffffffffffffffffffffff16610f6982610645565b73ffffffffffffffffffffffffffffffffffffffff1614610fbf576040517f08c379a0000000000000000000000000000000000000000000000000000000008152600401610fb690612bb5565b60405180910390fd5b600073ffffffffffffffffffffffffffffffffffffffff168273ffffffffffffffffffffffffffffffffffffffff16141561102f576040517f08c379a000000000000000000000000000000000000000000000000000000000815260040161102690612c47565b60405180910390fd5b61103a83838361177a565b611045600082610dfb565b6001600360008573ffffffffffffffffffffffffffffffffffffffff1673ffffffffffffffffffffffffffffffffffffffff16815260200190815260200160002060008282546110959190612c96565b925050819055506001600360008473ffffffffffffffffffffffffffffffffffffffff1673ffffffffffffffffffffffffffffffffffffffff16815260200190815260200160002060008282546110ec9190612cca565b92505081905550816002600083815260200190815260200160002060006101000a81548173ffffffffffffffffffffffffffffffffffffffff021916908373ffffffffffffffffffffffffffffffffffffffff160217905550808273ffffffffffffffffffffffffffffffffffffffff168473ffffffffffffffffffffffffffffffffffffffff167fddf252ad1be2c89b69c2b068fc378daa952ba7f163c4a11628f55a4df523b3ef60405160405180910390a46111ab83838361177f565b505050565b8173ffffffffffffffffffffffffffffffffffffffff168373ffffffffffffffffffffffffffffffffffffffff16141561121f576040517f08c379a000000000000000000000000000000000000000000000000000000000815260040161121690612d6c565b60405180910390fd5b80600560008573ffffffffffffffffffffffffffffffffffffffff1673ffffffffffffffffffffffffffffffffffffffff16815260200190815260200160002060008473ffffffffffffffffffffffffffffffffffffffff1673ffffffffffffffffffffffffffffffffffffffff16815260200190815260200160002060006101000a81548160ff0219169083151502179055508173ffffffffffffffffffffffffffffffffffffffff168373ffffffffffffffffffffffffffffffffffffffff167f17307eab39ab6107e8899845ad3d59bd9653f200f220920489ca2b5937696c31836040516113109190611e2b565b60405180910390a3505050565b611328848484610f49565b61133484848484611784565b611373576040517f08c379a000000000000000000000000000000000000000000000000000000000815260040161136a90612dfe565b60405180910390fd5b50505050565b606060405180602001604052806000815250905090565b606061139b82610da8565b60006113a5611379565b905060008151116113c557604051806020016040528060008152506113f0565b806113cf8461191b565b6040516020016113e09291906127d3565b6040516020818303038152906040525b915050919050565b600081600001549050919050565b6060600082519050600081141561142f5760405180602001604052806000815250915050611599565b600060036002836114409190612cca565b61144a9190612e4d565b60046114569190612e7e565b905060006020826114679190612cca565b67ffffffffffffffff8111156114805761147f61214c565b5b6040519080825280601f01601f1916602001820160405280156114b25781602001600182028036833780820191505090505b5090506000604051806060016040528060408152602001613232604091399050600181016020830160005b868110156115565760038101905062ffffff818a015116603f8160121c168401518060081b905060ff603f83600c1c1686015116810190508060081b905060ff603f8360061c1686015116810190508060081b905060ff603f831686015116810190508060e01b905080845260048401935050506114dd565b50600386066001811461157057600281146115805761158b565b613d3d60f01b600283035261158b565b603d60f81b60018303525b508484525050819450505050505b919050565b6115b8828260405180602001604052806000815250611a7c565b5050565b6115c58261170e565b611604576040517f08c379a00000000000000000000000000000000000000000000000000000000081526004016115fb90612f4a565b60405180910390fd5b8060066000848152602001908152602001600020908051906020019061162b929190611cd4565b505050565b6116ca83838360405160240161164893929190612f6a565b6040516020818303038152906040527fe3849f79000000000000000000000000000000000000000000000000000000007bffffffffffffffffffffffffffffffffffffffffffffffffffffffff19166020820180517bffffffffffffffffffffffffffffffffffffffffffffffffffffffff83818316178352505050506116e5565b505050565b6001816000016000828254019250508190555050565b60008151905060006a636f6e736f6c652e6c6f679050602083016000808483855afa5050505050565b60008073ffffffffffffffffffffffffffffffffffffffff166002600084815260200190815260200160002060009054906101000a900473ffffffffffffffffffffffffffffffffffffffff1673ffffffffffffffffffffffffffffffffffffffff1614159050919050565b505050565b505050565b60006117a58473ffffffffffffffffffffffffffffffffffffffff16611ad7565b1561190e578373ffffffffffffffffffffffffffffffffffffffff1663150b7a026117ce610df3565b8786866040518563ffffffff1660e01b81526004016117f09493929190612ffd565b602060405180830381600087803b15801561180a57600080fd5b505af192505050801561183b57506040513d601f19601f82011682018060405250810190611838919061305e565b60015b6118be573d806000811461186b576040519150601f19603f3d011682016040523d82523d6000602084013e611870565b606091505b506000815114156118b6576040517f08c379a00000000000000000000000000000000000000000000000000000000081526004016118ad90612dfe565b60405180910390fd5b805181602001fd5b63150b7a0260e01b7bffffffffffffffffffffffffffffffffffffffffffffffffffffffff1916817bffffffffffffffffffffffffffffffffffffffffffffffffffffffff191614915050611913565b600190505b949350505050565b60606000821415611963576040518060400160405280600181526020017f30000000000000000000000000000000000000000000000000000000000000008152509050611a77565b600082905060005b6000821461199557808061197e9061308b565b915050600a8261198e9190612e4d565b915061196b565b60008167ffffffffffffffff8111156119b1576119b061214c565b5b6040519080825280601f01601f1916602001820160405280156119e35781602001600182028036833780820191505090505b5090505b60008514611a70576001826119fc9190612c96565b9150600a85611a0b91906130d4565b6030611a179190612cca565b60f81b818381518110611a2d57611a2c613105565b5b60200101907effffffffffffffffffffffffffffffffffffffffffffffffffffffffffffff1916908160001a905350600a85611a699190612e4d565b94506119e7565b8093505050505b919050565b611a868383611afa565b611a936000848484611784565b611ad2576040517f08c379a0000000000000000000000000000000000000000000000000000000008152600401611ac990612dfe565b60405180910390fd5b505050565b6000808273ffffffffffffffffffffffffffffffffffffffff163b119050919050565b600073ffffffffffffffffffffffffffffffffffffffff168273ffffffffffffffffffffffffffffffffffffffff161415611b6a576040517f08c379a0000000000000000000000000000000000000000000000000000000008152600401611b6190613180565b60405180910390fd5b611b738161170e565b15611bb3576040517f08c379a0000000000000000000000000000000000000000000000000000000008152600401611baa906131ec565b60405180910390fd5b611bbf6000838361177a565b6001600360008473ffffffffffffffffffffffffffffffffffffffff1673ffffffffffffffffffffffffffffffffffffffff1681526020019081526020016000206000828254611c0f9190612cca565b92505081905550816002600083815260200190815260200160002060006101000a81548173ffffffffffffffffffffffffffffffffffffffff021916908373ffffffffffffffffffffffffffffffffffffffff160217905550808273ffffffffffffffffffffffffffffffffffffffff16600073ffffffffffffffffffffffffffffffffffffffff167fddf252ad1be2c89b69c2b068fc378daa952ba7f163c4a11628f55a4df523b3ef60405160405180910390a4611cd06000838361177f565b5050565b828054611ce0906124b1565b90600052602060002090601f016020900481019282611d025760008555611d49565b82601f10611d1b57805160ff1916838001178555611d49565b82800160010185558215611d49579182015b82811115611d48578251825591602001919060010190611d2d565b5b509050611d569190611d5a565b5090565b5b80821115611d73576000816000905550600101611d5b565b5090565b6000604051905090565b600080fd5b600080fd5b60007fffffffff0000000000000000000000000000000000000000000000000000000082169050919050565b611dc081611d8b565b8114611dcb57600080fd5b50565b600081359050611ddd81611db7565b92915050565b600060208284031215611df957611df8611d81565b5b6000611e0784828501611dce565b91505092915050565b60008115159050919050565b611e2581611e10565b82525050565b6000602082019050611e406000830184611e1c565b92915050565b600081519050919050565b600082825260208201905092915050565b60005b83811015611e80578082015181840152602081019050611e65565b83811115611e8f576000848401525b50505050565b6000601f19601f8301169050919050565b6000611eb182611e46565b611ebb8185611e51565b9350611ecb818560208601611e62565b611ed481611e95565b840191505092915050565b60006020820190508181036000830152611ef98184611ea6565b905092915050565b6000819050919050565b611f1481611f01565b8114611f1f57600080fd5b50565b600081359050611f3181611f0b565b92915050565b600060208284031215611f4d57611f4c611d81565b5b6000611f5b84828501611f22565b91505092915050565b600073ffffffffffffffffffffffffffffffffffffffff82169050919050565b6000611f8f82611f64565b9050919050565b611f9f81611f84565b82525050565b6000602082019050611fba6000830184611f96565b92915050565b611fc981611f84565b8114611fd457600080fd5b50565b600081359050611fe681611fc0565b92915050565b6000806040838503121561200357612002611d81565b5b600061201185828601611fd7565b925050602061202285828601611f22565b9150509250929050565b60008060006060848603121561204557612044611d81565b5b600061205386828701611fd7565b935050602061206486828701611fd7565b925050604061207586828701611f22565b9150509250925092565b60006020828403121561209557612094611d81565b5b60006120a384828501611fd7565b91505092915050565b6120b581611f01565b82525050565b60006020820190506120d060008301846120ac565b92915050565b6120df81611e10565b81146120ea57600080fd5b50565b6000813590506120fc816120d6565b92915050565b6000806040838503121561211957612118611d81565b5b600061212785828601611fd7565b9250506020612138858286016120ed565b9150509250929050565b600080fd5b600080fd5b7f4e487b7100000000000000000000000000000000000000000000000000000000600052604160045260246000fd5b61218482611e95565b810181811067ffffffffffffffff821117156121a3576121a261214c565b5b80604052505050565b60006121b6611d77565b90506121c2828261217b565b919050565b600067ffffffffffffffff8211156121e2576121e161214c565b5b6121eb82611e95565b9050602081019050919050565b82818337600083830152505050565b600061221a612215846121c7565b6121ac565b90508281526020810184848401111561223657612235612147565b5b6122418482856121f8565b509392505050565b600082601f83011261225e5761225d612142565b5b813561226e848260208601612207565b91505092915050565b6000806000806080858703121561229157612290611d81565b5b600061229f87828801611fd7565b94505060206122b087828801611fd7565b93505060406122c187828801611f22565b925050606085013567ffffffffffffffff8111156122e2576122e1611d86565b5b6122ee87828801612249565b91505092959194509250565b600067ffffffffffffffff8211156123155761231461214c565b5b61231e82611e95565b9050602081019050919050565b600061233e612339846122fa565b6121ac565b90508281526020810184848401111561235a57612359612147565b5b6123658482856121f8565b509392505050565b600082601f83011261238257612381612142565b5b813561239284826020860161232b565b91505092915050565b6000806000606084860312156123b4576123b3611d81565b5b600084013567ffffffffffffffff8111156123d2576123d1611d86565b5b6123de8682870161236d565b935050602084013567ffffffffffffffff8111156123ff576123fe611d86565b5b61240b8682870161236d565b925050604084013567ffffffffffffffff81111561242c5761242b611d86565b5b6124388682870161236d565b9150509250925092565b6000806040838503121561245957612458611d81565b5b600061246785828601611fd7565b925050602061247885828601611fd7565b9150509250929050565b7f4e487b7100000000000000000000000000000000000000000000000000000000600052602260045260246000fd5b600060028204905060018216806124c957607f821691505b602082108114156124dd576124dc612482565b5b50919050565b7f4552433732313a20617070726f76616c20746f2063757272656e74206f776e6560008201527f7200000000000000000000000000000000000000000000000000000000000000602082015250565b600061253f602183611e51565b915061254a826124e3565b604082019050919050565b6000602082019050818103600083015261256e81612532565b9050919050565b7f4552433732313a20617070726f76652063616c6c6572206973206e6f7420746f60008201527f6b656e206f776e6572206e6f7220617070726f76656420666f7220616c6c0000602082015250565b60006125d1603e83611e51565b91506125dc82612575565b604082019050919050565b60006020820190508181036000830152612600816125c4565b9050919050565b7f4552433732313a2063616c6c6572206973206e6f7420746f6b656e206f776e6560008201527f72206e6f7220617070726f766564000000000000000000000000000000000000602082015250565b6000612663602e83611e51565b915061266e82612607565b604082019050919050565b6000602082019050818103600083015261269281612656565b9050919050565b7f4552433732313a20696e76616c696420746f6b656e2049440000000000000000600082015250565b60006126cf601883611e51565b91506126da82612699565b602082019050919050565b600060208201905081810360008301526126fe816126c2565b9050919050565b7f4552433732313a2061646472657373207a65726f206973206e6f74206120766160008201527f6c6964206f776e65720000000000000000000000000000000000000000000000602082015250565b6000612761602983611e51565b915061276c82612705565b604082019050919050565b6000602082019050818103600083015261279081612754565b9050919050565b600081905092915050565b60006127ad82611e46565b6127b78185612797565b93506127c7818560208601611e62565b80840191505092915050565b60006127df82856127a2565b91506127eb82846127a2565b91508190509392505050565b600061280382866127a2565b915061280f82856127a2565b915061281b82846127a2565b9150819050949350505050565b60008190508160005260206000209050919050565b6000815461284a816124b1565b6128548186612797565b9450600182166000811461286f5760018114612880576128b3565b60ff198316865281860193506128b3565b61288985612828565b60005b838110156128ab5781548189015260018201915060208101905061288c565b838801955050505b50505092915050565b7f3c2f746578743e3c2f7376673e00000000000000000000000000000000000000600082015250565b60006128f2600d83612797565b91506128fd826128bc565b600d82019050919050565b6000612914828561283d565b915061292082846127a2565b915061292b826128e5565b91508190509392505050565b7f7b226e616d65223a202200000000000000000000000000000000000000000000600082015250565b600061296d600a83612797565b915061297882612937565b600a82019050919050565b7f222c20226465736372697074696f6e223a2022546872656520776f726473206160008201527f72652063686f73656e206279206120757365722e222c2022696d616765223a2060208201527f22646174613a696d6167652f7376672b786d6c3b6261736536342c0000000000604082015250565b6000612a05605b83612797565b9150612a1082612983565b605b82019050919050565b7f227d000000000000000000000000000000000000000000000000000000000000600082015250565b6000612a51600283612797565b9150612a5c82612a1b565b600282019050919050565b6000612a7282612960565b9150612a7e82856127a2565b9150612a89826129f8565b9150612a9582846127a2565b9150612aa082612a44565b91508190509392505050565b7f646174613a6170706c69636174696f6e2f6a736f6e3b6261736536342c000000600082015250565b6000612ae2601d83612797565b9150612aed82612aac565b601d82019050919050565b6000612b0382612ad5565b9150612b0f82846127a2565b915081905092915050565b6000604082019050612b2f6000830185611f96565b612b3c60208301846120ac565b9392505050565b7f4552433732313a207472616e736665722066726f6d20696e636f72726563742060008201527f6f776e6572000000000000000000000000000000000000000000000000000000602082015250565b6000612b9f602583611e51565b9150612baa82612b43565b604082019050919050565b60006020820190508181036000830152612bce81612b92565b9050919050565b7f4552433732313a207472616e7366657220746f20746865207a65726f2061646460008201527f7265737300000000000000000000000000000000000000000000000000000000602082015250565b6000612c31602483611e51565b9150612c3c82612bd5565b604082019050919050565b60006020820190508181036000830152612c6081612c24565b9050919050565b7f4e487b7100000000000000000000000000000000000000000000000000000000600052601160045260246000fd5b6000612ca182611f01565b9150612cac83611f01565b925082821015612cbf57612cbe612c67565b5b828203905092915050565b6000612cd582611f01565b9150612ce083611f01565b9250827fffffffffffffffffffffffffffffffffffffffffffffffffffffffffffffffff03821115612d1557612d14612c67565b5b828201905092915050565b7f4552433732313a20617070726f766520746f2063616c6c657200000000000000600082015250565b6000612d56601983611e51565b9150612d6182612d20565b602082019050919050565b60006020820190508181036000830152612d8581612d49565b9050919050565b7f4552433732313a207472616e7366657220746f206e6f6e20455243373231526560008201527f63656976657220696d706c656d656e7465720000000000000000000000000000602082015250565b6000612de8603283611e51565b9150612df382612d8c565b604082019050919050565b60006020820190508181036000830152612e1781612ddb565b9050919050565b7f4e487b7100000000000000000000000000000000000000000000000000000000600052601260045260246000fd5b6000612e5882611f01565b9150612e6383611f01565b925082612e7357612e72612e1e565b5b828204905092915050565b6000612e8982611f01565b9150612e9483611f01565b9250817fffffffffffffffffffffffffffffffffffffffffffffffffffffffffffffffff0483118215151615612ecd57612ecc612c67565b5b828202905092915050565b7f45524337323155524953746f726167653a2055524920736574206f66206e6f6e60008201527f6578697374656e7420746f6b656e000000000000000000000000000000000000602082015250565b6000612f34602e83611e51565b9150612f3f82612ed8565b604082019050919050565b60006020820190508181036000830152612f6381612f27565b9050919050565b60006060820190508181036000830152612f848186611ea6565b9050612f9360208301856120ac565b612fa06040830184611f96565b949350505050565b600081519050919050565b600082825260208201905092915050565b6000612fcf82612fa8565b612fd98185612fb3565b9350612fe9818560208601611e62565b612ff281611e95565b840191505092915050565b60006080820190506130126000830187611f96565b61301f6020830186611f96565b61302c60408301856120ac565b818103606083015261303e8184612fc4565b905095945050505050565b60008151905061305881611db7565b92915050565b60006020828403121561307457613073611d81565b5b600061308284828501613049565b91505092915050565b600061309682611f01565b91507fffffffffffffffffffffffffffffffffffffffffffffffffffffffffffffffff8214156130c9576130c8612c67565b5b600182019050919050565b60006130df82611f01565b91506130ea83611f01565b9250826130fa576130f9612e1e565b5b828206905092915050565b7f4e487b7100000000000000000000000000000000000000000000000000000000600052603260045260246000fd5b7f4552433732313a206d696e7420746f20746865207a65726f2061646472657373600082015250565b600061316a602083611e51565b915061317582613134565b602082019050919050565b600060208201905081810360008301526131998161315d565b9050919050565b7f4552433732313a20746f6b656e20616c7265616479206d696e74656400000000600082015250565b60006131d6601c83611e51565b91506131e1826131a0565b602082019050919050565b60006020820190508181036000830152613205816131c9565b905091905056fe416e204e465420772f20494420257320686173206265656e206d696e74656420746f2025734142434445464748494a4b4c4d4e4f505152535455565758595a6162636465666768696a6b6c6d6e6f707172737475767778797a303132333435363738392b2fa2646970667358221220dc5c8777b7e46237ede3544ac8ff97bc665645015a67066fba019f74c4c18fb964736f6c634300080900333c73766720786d6c6e733d27687474703a2f2f7777772e77332e6f72672f323030302f73766727207072657365727665417370656374526174696f3d27784d696e594d696e206d656574272076696577426f783d273020302033353020333530273e3c7374796c653e2e62617365207b2066696c6c3a2077686974653b20666f6e742d66616d696c793a2073657269663b20666f6e742d73697a653a20323470783b207d3c2f7374796c653e3c726563742077696474683d273130302527206865696768743d2731303025272066696c6c3d27626c61636b27202f3e3c7465787420783d273530252720793d273530252720636c6173733d27626173652720646f6d696e616e742d626173656c696e653d276d6964646c652720746578742d616e63686f723d276d6964646c65273e",
  "linkReferences": {},
  "deployedLinkReferences": {}
}